{
    "_format": "hh-sol-artifact-1",
    "contractName": "TodoList",
    "sourceName": "contracts/TodoList.sol",
    "abi": [
        {
            "anonymous": false,
            "inputs": [
                {
                    "indexed": false,
                    "internalType": "uint256",
                    "name": "id",
                    "type": "uint256"
                },
                {
                    "indexed": false,
                    "internalType": "bool",
                    "name": "completed",
                    "type": "bool"
                }
            ],
            "name": "TaskCompleted",
            "type": "event"
        },
        {
            "anonymous": false,
            "inputs": [
                {
                    "indexed": false,
                    "internalType": "uint256",
                    "name": "id",
                    "type": "uint256"
                },
                {
                    "indexed": false,
                    "internalType": "string",
                    "name": "content",
                    "type": "string"
                }
            ],
            "name": "TaskCreated",
            "type": "event"
        },
        {
            "inputs": [
                {
                    "internalType": "string",
                    "name": "_content",
                    "type": "string"
                }
            ],
            "name": "createTask",
            "outputs": [],
            "stateMutability": "nonpayable",
            "type": "function"
        },
        {
            "inputs": [],
            "name": "taskCount",
            "outputs": [
                {
                    "internalType": "uint256",
                    "name": "",
                    "type": "uint256"
                }
            ],
            "stateMutability": "view",
            "type": "function"
        },
        {
            "inputs": [
                {
                    "internalType": "uint256",
                    "name": "",
                    "type": "uint256"
                }
            ],
            "name": "tasks",
            "outputs": [
                {
                    "internalType": "uint256",
                    "name": "id",
                    "type": "uint256"
                },
                {
                    "internalType": "string",
                    "name": "content",
                    "type": "string"
                },
                {
                    "internalType": "bool",
                    "name": "completed",
                    "type": "bool"
                }
            ],
            "stateMutability": "view",
            "type": "function"
        },
        {
            "inputs": [
                {
                    "internalType": "uint256",
                    "name": "_id",
                    "type": "uint256"
                }
            ],
            "name": "toggleTask",
            "outputs": [],
            "stateMutability": "nonpayable",
            "type": "function"
        }
    ],
    "bytecode": "0x608060405234801561001057600080fd5b50610917806100206000396000f3fe608060405234801561001057600080fd5b506004361061004c5760003560e01c8063111002aa14610051578063613137a41461006d5780638d97767214610089578063b6cb58a5146100bb575b600080fd5b61006b600480360381019061006691906105fa565b6100d9565b005b61008760048036038101906100829190610679565b6101ad565b005b6100a3600480360381019061009e9190610679565b610338565b6040516100b293929190610758565b60405180910390f35b6100c36103f7565b6040516100d09190610796565b60405180910390f35b600160008154809291906100ec906107e0565b91905055506040518060600160405280600154815260200182815260200160001515815250600080600154815260200190815260200160002060008201518160000155602082015181600101908051906020019061014b9291906103fd565b5060408201518160020160006101000a81548160ff0219169083151502179055509050507fa5ed9e6226c584326505694539c95cb0e3238ae09bcda5a65c00bbfdab1c6662600154826040516101a2929190610828565b60405180910390a150565b6000806000838152602001908152602001600020604051806060016040529081600082015481526020016001820180546101e690610887565b80601f016020809104026020016040519081016040528092919081815260200182805461021290610887565b801561025f5780601f106102345761010080835404028352916020019161025f565b820191906000526020600020905b81548152906001019060200180831161024257829003601f168201915b505050505081526020016002820160009054906101000a900460ff1615151515815250509050806040015115816040019015159081151581525050806000808481526020019081526020016000206000820151816000015560208201518160010190805190602001906102d39291906103fd565b5060408201518160020160006101000a81548160ff0219169083151502179055509050507fe21fa966ca5cd02748c0752352d18c48165e61cb55b4c29cccf924b5a95fcff182826040015160405161032c9291906108b8565b60405180910390a15050565b600060205280600052604060002060009150905080600001549080600101805461036190610887565b80601f016020809104026020016040519081016040528092919081815260200182805461038d90610887565b80156103da5780601f106103af576101008083540402835291602001916103da565b820191906000526020600020905b8154815290600101906020018083116103bd57829003601f168201915b5050505050908060020160009054906101000a900460ff16905083565b60015481565b82805461040990610887565b90600052602060002090601f01602090048101928261042b5760008555610472565b82601f1061044457805160ff1916838001178555610472565b82800160010185558215610472579182015b82811115610471578251825591602001919060010190610456565b5b50905061047f9190610483565b5090565b5b8082111561049c576000816000905550600101610484565b5090565b6000604051905090565b600080fd5b600080fd5b600080fd5b600080fd5b6000601f19601f8301169050919050565b7f4e487b7100000000000000000000000000000000000000000000000000000000600052604160045260246000fd5b610507826104be565b810181811067ffffffffffffffff82111715610526576105256104cf565b5b80604052505050565b60006105396104a0565b905061054582826104fe565b919050565b600067ffffffffffffffff821115610565576105646104cf565b5b61056e826104be565b9050602081019050919050565b82818337600083830152505050565b600061059d6105988461054a565b61052f565b9050828152602081018484840111156105b9576105b86104b9565b5b6105c484828561057b565b509392505050565b600082601f8301126105e1576105e06104b4565b5b81356105f184826020860161058a565b91505092915050565b6000602082840312156106105761060f6104aa565b5b600082013567ffffffffffffffff81111561062e5761062d6104af565b5b61063a848285016105cc565b91505092915050565b6000819050919050565b61065681610643565b811461066157600080fd5b50565b6000813590506106738161064d565b92915050565b60006020828403121561068f5761068e6104aa565b5b600061069d84828501610664565b91505092915050565b6106af81610643565b82525050565b600081519050919050565b600082825260208201905092915050565b60005b838110156106ef5780820151818401526020810190506106d4565b838111156106fe576000848401525b50505050565b600061070f826106b5565b61071981856106c0565b93506107298185602086016106d1565b610732816104be565b840191505092915050565b60008115159050919050565b6107528161073d565b82525050565b600060608201905061076d60008301866106a6565b818103602083015261077f8185610704565b905061078e6040830184610749565b949350505050565b60006020820190506107ab60008301846106a6565b92915050565b7f4e487b7100000000000000000000000000000000000000000000000000000000600052601160045260246000fd5b60006107eb82610643565b91507fffffffffffffffffffffffffffffffffffffffffffffffffffffffffffffffff820361081d5761081c6107b1565b5b600182019050919050565b600060408201905061083d60008301856106a6565b818103602083015261084f8184610704565b90509392505050565b7f4e487b7100000000000000000000000000000000000000000000000000000000600052602260045260246000fd5b6000600282049050600182168061089f57607f821691505b6020821081036108b2576108b1610858565b5b50919050565b60006040820190506108cd60008301856106a6565b6108da6020830184610749565b939250505056fea26469706673582212203403250b786333cc730a420823cd06eccef4aeeca8308a78f28a4e074c49d1ce64736f6c634300080d0033",
    "linkReferences": {},
    "deployedLinkReferences": {}
}